S00F0000736572766F4D382E7372656361
S113000027C036C035C034C033C032C031C030C060
S11300102FC052C02DC02CC02BC02AC080C028C005
S113002027C00ECB25C0DFC3B3C3DFC3E3C3E8C31C
S1130030ECC3F0C3F1C3F2C3F3C3AAC3A9C3A8C3F7
S1130040A7C3A6C3A5C3EEC3F0C3F4C3F8C3FFC3D9
S113005011241FBECFE5D4E0DEBFCDBF21E0A0E672
S1130060B0E001C01D92A43AB207E1F756D34DCED9
S1130070C7CF81E0809335011092360110923A0186
S11300801092390110923401109238011092370104
S113009080933B0185B3887F85BB82E487B98EED6D
S11300A086B982EB82BF85E083BF88B7816088BF51
S11300B089B7816089BF08951F920F920FB60F927E
S11300C011242F933F934F935F936F937F938F9359
S11300D09F93AF93BF93EF93FF938091350181304A
S11300E049F467E086E017DAAC014F5F5F4F67E0E1
S11300F086E023DA8EED86B982EB82BFFF91EF9121
S1130100BF91AF919F918F917F916F915F914F912B
S11301103F912F910F900FBE0F901F9018951F9233
S11301200F920FB60F9211242F933F934F935F9327
S11301306F937F938F939F93AF93BF93EF93FF93AB
S113014044B155B180913501813021F080F0823085
S113015031F12FC0509338014093370181E08093EF
S113016034011092350180E487B9369A22C0509345
S11301703A014093390181E08093360180913B013B
S1130180882339F082E08093350181E487B9369A77
S113019010C081E08093350182E487B90AC01092CF
S11301A03B0165E184E1C9D981E08093350182E4B2
S11301B087B9FF91EF91BF91AF919F918F917F91FB
S11301C06F915F914F913F912F910F900FBE0F90C0
S11301D01F9018954F925F926F927F928F929F9289
S11301E0AF92BF92CF92DF92EF92FF920F931F9341
S11301F0CF93DF93CDB7DEB728970FB6F894DEBF61
S11302000FBECDBF29013A01E982FA820B831C8318
S113021090934F0180934E0170934101609340018C
S1130220681B790B709351016093500180E090E05A
S113023010DC6D837E838F83988760937000709346
S113024071008093720090937300A60195018FDC76
S11302506B017C012B8D3C8D4D8D5E8D6D817E817E
S11302608F81988584DC4B015C0140923C01509263
S11302703D0160923E0170923F0189819A81AB8178
S1130280BC818093460190934701A0934801B093A9
S11302904901C0924A01D0924B01E0924C01F09284
S11302A04D018092420190924301A0924401B09288
S11302B04501A3019201C301B201CEDA6D837E83AD
S11302C08F83988729813A814B815C81CA01B90166
S11302D0C3DA9B01AC016D817E818F819885BBDA85
S11302E0A7019601B9DAA5019401B6DA60936C000E
S11302F070936D0080936E0090936F0020E030E067
S113030040E450E469817A818B819C8130DC69838B
S11303107A838B839C8320E030E040E450E4C30183
S1130320B20125DC9B01AC0169817A818B819C81BE
S113033092DA69837A838B839C83A7019601C70130
S1130340B6018ADA9B01AC0169817A818B819C8137
S113035082DAA50194017FDA6093680070936900E2
S113036080936A0090936B00C0926400D092650001
S1130370E0926600F0926700409260005092610043
S1130380609262007092630028960FB6F894DEBF04
S11303900FBECDBFDF91CF911F910F91FF90EF90D2
S11303A0DF90CF90BF90AF909F908F907F906F9091
S11303B05F904F9008954F925F926F927F928F92C9
S11303C09F92AF92BF92CF92DF92EF92FF920F93E0
S11303D01F93CF93DF93CDB7DEB762970FB6F89430
S11303E0DEBF0FBECDBF20914E0130914F012817C3
S11303F0390738F100913C0110913D0120913E01F3
S113040030913F01DB010D931D932D933C93139782
S113041020914E0130914F018217930748F080914B
S11304204A0190914B01A0914C01B0914D0103C040
S113043080E090E0DC01FA0180839183A283B3839E
S1130440D9C0E0914001F09141018E179F0738F126
S113045000914601109147012091480130914901D2
S1130460DB010D931D932D933C9313972091400131
S1130470309141012817390748F080914201909149
S11304804301A0914401B091450103C080E090E094
S1130490DC01FA0180839183A283B383ABC08A0118
S11304A07A8B698BBC01C0907000D0907100E09091
S11304B07200F0907300621B730B80E090E0C9DA65
S11304C0A70196012DDA69837A838B839C839B0130
S11304D0AC014DDB6D837E838F83988780916C00A4
S11304E090916D00A0916E00B0916F008D879E87F2
S11304F0AF87B88B409068005090690060906A00A4
S113050070906B008090640090906500A0906600ED
S1130510B09067002D813E814F81588569817A8131
S11305208B819C8124DB2D853E854F8558891FDB7B
S113053069877A878B879C87A30192016D817E816D
S11305408F81988514DB9B01AC0169857A858B8545
S11305509C8582D969877A878B879C87A5019401BA
S113056069817A818B819C8102DB9B01AC01698565
S11305707A858B859C8570D92091600030916100CB
S1130580409162005091630067D9A989BA896D933B
S11305907D938D939C93139720E030E040E450E4E6
S11305A06D857E858F859889E2DA2D813E814F8124
S11305B05885DDDA6D837E838F839887A30192014A
S11305C0C301B20149D929813A814B815C81CFDAD7
S11305D09B01AC016D817E818F8198853DD9A501F8
S11305E094013AD9A70196019BD9F80160837183DC
S11305F08283938362960FB6F894DEBF0FBECDBF9D
S1130600DF91CF911F910F91FF90EF90DF90CF90EA
S1130610BF90AF909F908F907F906F905F904F901E
S113062008950F931F93CF93DF93CDB7DEB76097F1
S11306300FB6F894DEBF0FBECDBF40E150E06FEFC0
S113064070E0CE01019634DB00E010E040E150E0C0
S1130650B801CE01019643DB005F1F4F011582E014
S11306601807A1F781E060960FB6F894DEBF0FBEBD
S1130670CDBFDF91CF911F910F910895CF93DF9359
S113068000D0CDB7DEB742E050E060E070E0CE01CC
S1130690019615DB89818330B1F448E250E062E0D1
S11306A070E08CE791E00BDB2A8193E0ECE7F1E06A
S11306B08191980F81E0E43AF807D1F781E0291796
S11306C019F080E001C080E00F900F90DF91CF918E
S11306D00895CF93DF9300D0CDB7DEB783E089834D
S11306E0ECE7F1E09191890F91E0E43AF907D1F751
S11306F08A8342E050E060E070E0CE010196EFDAD8
S113070048E250E062E070E08CE791E0E8DA81E0F2
S11307100F900F90DF91CF91089586E087BB89EF0A
S113072088BB14BA8FE785BB11BA8FEF82BB85D81B
S1130730DAD63AD59EDC66D3B6D0FAD480917C0161
S113074058D740E050E067E086E0F7D6789480918F
S113075034018823E1F310923401809137019091A0
S11307603801EFD010923401409137015091380193
S113077061E180E1E2D640E050E063E182E1DDD670
S1130780ECE5F1E08581836085838F01FF24F39498
S113079080913401882371F08AE090E0D7D11092DF
S11307A03401C0913701D0913801CE0156D3BC0138
S11307B0CE0154D580913601882339F01092360148
S11307C08091390190913A01C4D431D7882301F33F
S11307D01BD790E0FC01E058F109E531F105C0F6C2
S11307E0ED5EFF4F09942ED8D3CFF8018581816047
S11307F08583CECFF80185818E7F858304D5C8CFCC
S1130800F801858182608583C3CFF80185818D7F5E
S11308108583BECF5EDFBCCF31DFBACF5ED6B8CF23
S113082000DFB6CFF0923B01B3CFF801858184603D
S11308308583AECFF80185818B7F8583A9CF109204
S1130840340180913701909138017BD0A1CFCCD075
S11308509FCF90915B0180915201981718F48150B9
S1130860891B0895895F891B0895CF93DF9340E026
S113087050E06BE18AE161D640E050E06DE18CE14B
S11308805CD640E050E06FE18EE157D640E050E0A6
S113089069E188E152D6CCE5D1E01E8ADADF8F8B9C
S11308A0DF91CF910895AF92BF92CF92DF92EF92F2
S11308B0FF920F931F9310925301109254011092C0
S11308C0550110925601109257011092580110923E
S11308D0590110925A0110925B0110925201E4E7FF
S11308E0F0E01182108280E090E0A0E0B4E4828322
S11308F09383A483B5831682178210861186128689
S11309001386148615861F921F921F921F92A12C84
S1130910B12C65017C018D019C01AD0160E070E0AA
S113092080E090E057DCA1DF0F900F900F900F90C4
S11309301F910F91FF90EF90DF90CF90BF90AF90F9
S11309400895AF92BF92CF92DF92EF92FF920F93EE
S11309501F93CF93DF93109253011092540110927E
S1130960550110925601109257011092580110929D
S1130970590110925A0110925B0110925201C4E77E
S1130980D0E019821882BC01990F880B990B63D8A7
S11309909B01AC016A837B838C839D831E821F82AF
S11309A0188619861A861B861C861D861F921F921E
S11309B01F921F92A12CB12C65017B018C0160E078
S11309C070E080E090E006DC50DF0F900F900F9015
S11309D00F90DF91CF911F910F91FF90EF90DF90D7
S11309E0CF90BF90AF9008954F925F926F927F9295
S11309F08F929F92AF92BF92CF92DF92EF92FF922B
S1130A000F931F93CF93C0915B01CF5FC770809109
S1130A105201C81709F487C06BE18AE17CD53C0117
S1130A206DE18CE178D56C016FE18EE174D57C01C8
S1130A3069E188E170D54C01892B09F476C08C2FCB
S1130A4090E0880F991F8C01000F111F000F111FD8
S1130A50000F111F081B190B0C581F4FF80191822E
S1130A608082B301770C880B990BF5D72B013C01DD
S1130A70F8016283738384839583B601DD0C880B4C
S1130A80990BE9D720E030E040E85AE370D8F80148
S1130A906683778380879187B701FF0C880B990B56
S1130AA0DAD720E030E040E85AE361D8F801628701
S1130AB07387848795879091520180915B01981385
S1130AC019C020914601309147014091480150914D
S1130AD049011F921F921F921F92A12CB12C6501F4
S1130AE083017201B40180E090E074DB0F900F90F9
S1130AF00F900F908091570190915801A091590146
S1130B00B0915A01880D991DA11DB11D8093570103
S1130B1090935801A0935901B0935A01C0935B017B
S1130B20A4DE81E003C080E001C080E0CF911F918A
S1130B300F91FF90EF90DF90CF90BF90AF909F9078
S1130B408F907F906F905F904F9008958F929F92B7
S1130B50AF92BF92CF92DF92EF92FF920F931F93C7
S1130B60CF93DF93CDB7DEB728970FB6F894DEBFE7
S1130B700FBECDBF2091610122FF31C130915201DE
S1130B8020915B01321311C0109253011092540151
S1130B90109255011092560110925701109258016B
S1130BA01092590110925A01E6C04091530150919C
S1130BB054016091550170915601480F591F611DF0
S1130BC0711D4093530150935401609355017093E8
S1130BD056018091500190915101A0E0B0E084173A
S1130BE09507A607B70708F0C6C00F2EFCE58F2EA1
S1130BF0F1E09F2EF02D481B590B6A0B7B0B4093A1
S1130C0053015093540160935501709356014091E0
S1130C105701509158016091590170915A018A010C
S1130C209B01081B190B2A0B3B0B009357011093D4
S1130C3058012093590130935A01809152018F5FDA
S1130C4087708093520190915B01891335C090E0C5
S1130C50880F991FFC01EE0FFF1FEE0FFF1FEE0F11
S1130C60FF1FE81BF90BEC58FF4F228133814481AD
S1130C7055811F921F921F921F92A12CB12C6501C6
S1130C8079018A0160E070E080E090E0A3DA1092DC
S1130C905301109254011092550110925601109272
S1130CA05701109258011092590110925A010F9055
S1130CB00F900F900F9048C021E0280F277030E06C
S1130CC090E0880F991FDC01AA0FBB1FAA0FBB1F5E
S1130CD0AA0FBB1FA81BB90BAC58BF4F1A96AD90F7
S1130CE0BD90CD90DC901D97C901880F991FFC0120
S1130CF0EE0FFF1FEE0FFF1FEE0FFF1FE81BF90B98
S1130D00EC58FF4FE280F3800481158112962D91F7
S1130D103D914D915C91159760817181DF0116962B
S1130D2013968C9113978F9312968C9112978F939D
S1130D3011968C918F9386818F9380E090E04ADAAC
S1130D400F900F900F900F9084DDF401878B8091AA
S1130D50500190915101A0E0B0E0409153015091B5
S1130D605401609155017091560184179507A607A7
S1130D70B70708F440CFAE014B5F5F4FBE016F5F12
S1130D807F4F809153019091540115DB20E030E0B6
S1130D9040E251E46D817E818F819885E8D66D8330
S1130DA07E838F83988720E030E040E05FE36981B1
S1130DB07A818B819C8150D51BD6AB0161E180E1A6
S1130DC0BCD320E030E040E05FE36D817E818F8121
S1130DD0988542D50DD6AB0163E182E1AED3289666
S1130DE00FB6F894DEBF0FBECDBFDF91CF911F9138
S1130DF00F91FF90EF90DF90CF90BF90AF909F90B6
S1130E008F90089510920301109202011092010133
S1130E10109200010895CF93DF93CCE5D1E019A29D
S1130E2040E050E063E282E288D340E050E065E2D3
S1130E3084E283D340E050E067E286E27ED340E67A
S1130E4050E06BE28AE279D340EA53E06DE28CE24F
S1130E5074D31EA6DF91CF9108950F931F93CF9360
S1130E60DF93EC018091FC009091FD00A091FE00C5
S1130E70B091FF00AC01BD017595679557954795F5
S1130E80841B950BA60BB70BAE010D2E000C660B45
S1130E90770B840F951FA61FB71F8093FC009093B8
S1130EA0FD00A093FE00B093FF00B595A79597951C
S1130EB087959093FB008093FA0020910001309174
S1130EC00101AC01421B530B5093F9004093F8000D
S1130ED0909301018093000161E180E11CD3909320
S1130EE0F7008093F60063E182E115D39093F50057
S1130EF08093F4006BE28AE20ED39093F300809324
S1130F00F2006DE28CE207D39093F1008093F0003D
S1130F1080918A01882399F10FEF13E0A8014C1BFB
S1130F205D0B69E088E009D34091F8005091F90025
S1130F305195419551096BE08AE0FFD28091F6000A
S1130F409091F7009801281B390B3093F7002093F8
S1130F50F6008091F2009091F300A801481B590B10
S1130F605093F3004093F2008091F0009091F100CF
S1130F70081B190B1093F1000093F0000BC0AE0195
S1130F8069E088E0DAD24091F8005091F9006BE012
S1130F908AE0D3D280917D0190E09093EF0080931A
S1130FA0EE008091F6009091F700209102013091BB
S1130FB003018217930721F4C091FA00D091FB003A
S1130FC090930301809302012091F2003091F30089
S1130FD08217930724F43093F7002093F60080914E
S1130FE0F0009091F1002091F6003091F700821703
S1130FF0930724F49093F7008093F6008091F60011
S11310009091F7008C1B9D0B9093ED008093EC0066
S11310108091F4009091F5002091F8003091F9004E
S1131020821B930B9093EB008093EA0063E282E2CD
S113103072D29093E9008093E80065E284E26BD277
S1131040AC011092E4001092E5001092E6001092B8
S1131050E700A091EC00B091ED008091EE0090913A
S1131060EF008A179B0734F0919581959109A81791
S1131070B9076CF42091E8003091E900FDD5609344
S1131080E4007093E5008093E6009093E700A0915C
S1131090EA00B091EB009A01EFD50091E4001091C1
S11310A0E5002091E6003091E700DC01CB01800FE0
S11310B0911FA21FB31F892F9A2FAB2FBB27A7FD08
S11310C0BA958F3F9105A105B10571F06CF08FEFD2
S11310D090E0A0E0B0E08093E4009093E500A0935A
S11310E0E600B093E7001BC081305FEF9507A507CA
S11310F0B5074CF08093E4009093E500A093E600DC
S1131100B093E7000CC081E09FEFAFEFBFEF809397
S1131110E4009093E500A093E600B093E70080918B
S1131120E4009091E500DF91CF911F910F91089514
S113113010921401E4E0F1E084E191E01192119243
S1131140E817F907D9F740E050E06DE08CE0F5D1FD
S1131150089520911401E22FF0E0EE0FFF1FEC5FE1
S1131160FE4F918380832F5F277020931401E4E066
S1131170F1E024E131E040E050E081919191480FA9
S1131180591FE217F307C9F75695479556954795A2
S1131190569547956DE08CE0D0D1089540E150E03C
S11311A069E288E2CAD1089569E288E2B4D19093F1
S11311B01601809315011FBC00000000000088B3D5
S11311C0897F88BB87B3866087BB1DBC1CBC1FBCE2
S11311D01EBC19BE809115019091160182959295BD
S11311E0907F9827807F9827019797BD86BD1BBC69
S11311F01ABC19BC18BC1FBC81E18EBDECE5F1E042
S1131200168617860895F8948091180181111BC0E1
S113121080911701811117C008C000008F5F8830CA
S1131220E1F710921801109217011BBC1ABC19BCEB
S113123018BC7894ECE5F1E08091180186878091E0
S11312401701878708958FB58F738FBD8FB58F7CF6
S11312508FBD88B3897F88BB80E0DFCFEF92FF9298
S11312600F931F93CF93DF938C01EB0169E288E224
S113127052D120911501309116018217930741F143
S11312808FB58F738FBD8FB58F7C8FBD88B3897FEA
S113129088BB80E000008F5F8830E1F7109218016E
S11312A01092170169E288E236D190931601809377
S11312B0150182959295907F9827807F98270197B2
S11312C097BD86BD1DBC1CBC1BBC1ABC19BC18BC7C
S11312D080918A01882309F16DE28CE21CD1E82E09
S11312E0F92E6BE28AE217D14E2D5F2D411524E0D1
S11312F0520710F04FEF53E0682F792F611584E007
S1131300780710F06FEF73E02FEF33E0C901841B0F
S1131310950BAC01261B370B18C06BE28AE2FBD09D
S1131320E82EF92E6DE28CE2F6D04E2D5F2D41159C
S113133024E0520710F04FEF53E0282F392F2115E6
S113134084E0380710F02FEF33E00417150720F47A
S1131350DD2314F4C0E0D0E02017310728F41C1674
S11313601D0614F4C0E0D0E08091610180FF98C0B4
S1131370DD230CF049C0C19520911501309116016F
S1131380C901A0E0B0E0880F991FAA1FBB1F880FF6
S1131390991FAA1FBB1F880F991FAA1FBB1F880F65
S11313A0991FAA1FBB1F9C01AD012150310941099E
S11313B05109AC2FB0E066D42FEF30E040E050E0AC
S11313C039D4F89480911701882309F46BC0809173
S11313D01801811167C008C000008F5F8830E1F7F1
S11313E080E28FBD10921801C09317011BBC1ABC78
S11313F039BD28BD7894ECE5F1E080911801868729
S113140080911701878762C01C161D060CF048C026
S11314102091150130911601C901A0E0B0E0880FB8
S1131420991FAA1FBB1F880F991FAA1FBB1F880FD4
S1131430991FAA1FBB1F880F991FAA1FBB1F9C01BE
S1131440AD012150310941095109AC2FB0E01AD442
S11314502FEF30E040E050E0EDD3F8948091180194
S1131460882351F180911701811126C009C0000021
S11314708F5F8830E1F78FB580688FBD10921701B8
S1131480C09318013BBD2ABD19BC18BC7894ECE587
S1131490F1E080911801868780911701878716C033
S11314A0B2DE14C08FB58F758FBD39BD28BD88B32A
S11314B0897F88BB80E090CF8FB58F758FBD3BBD92
S11314C02ABD88B3897F88BB80E0D1CFDF91CF91DB
S11314D01F910F91FF90EF90089580E180937C011C
S11314E05DDE99DC0895ECE5F1E088E4DF011D920E
S11314F08A95E9F781E08083818382E08383BED883
S1131500811108C048E450E068E270E08CE791E0A3
S1131510CFD3E3DF08959FB7F8949FBFE82FF0E09F
S1131520E45AFE4F808190E0982F8827E62FF0E060
S1131530E45AFE4F2081822B08959FB7F894E82F38
S1131540F0E0E45AFE4F5083E62FF0E0E45AFE4FF9
S113155040839FBF08958F77883330F4E82FF0E0FD
S1131560E45AFE4F80810895803698F0803738F42D
S1131570E8EDE80FF0E0E45AFE4F80810895E8ECCE
S1131580E80FF0E0E45AFE4F8081803720F4E3DF77
S1131590089580E0089580E008958F77803140F1C8
S11315A0803230F4E82FF0E0E45AFE4F608308956F
S11315B09091610191FF1CC0883330F4E82FF0E072
S11315C0E45AFE4F60830895803690F0803738F4F3
S11315D0E8EDE80FF0E0E45AFE4F60830895E8EB8D
S11315E0E80FF0E0E45AFE4F8081803708F4D5DF3D
S11315F008951092300110923101880F82B98FEF53
S113160083B985EC86BF08959091310180913001B2
S11316109817D1F3809130018F5F837080933001EC
S1131620E0913001F0E0E45DFE4F80810895209167
S113163031019091300181E0291301C080E00895C7
S11316401F920F920FB60F9211242F933F934F9333
S11316505F936F937F938F939F93AF93BF93CF9336
S1131660DF93EF93FF9381B1803A09F4CBC078F410
S1131670803609F444C020F4882309F4C6C0C8C0E5
S1131680803809F441C0883809F4BCC0C1C0803C2A
S113169099F128F4883A49F0883B39F0B9C0883C7C
S11316A059F1883F09F4B6C0B3C08091330153DFC8
S11316B0909132019430B9F490912B0120912A0138
S11316C0921770F420912901280F209329019F5F1C
S11316D090932B01909133019F5F9093330108C045
S11316E08091290105C0909133019F5F909333014C
S11316F083B985EC86BF8EC085EC86BF8BC0109203
S1131700320185EC86BF86C063B18091320182309C
S113171079F128F4882341F0813009F170C08330D5
S113172091F18430D9F16BC0662334F060933301B6
S113173081E08093320163C0613821F482E08093B8
S113174032015DC0809131018F5F837080933101DC
S1131750E0913101F0E0E45DFE4F608350C0809180
S113176033011BDF809133018F5F8093330147C0C6
S11317706F7060932A016093290110922B0183E01A
S1131780809332013CC06093330180912901680F3A
S11317906093290184E08093320131C080912B0150
S11317A0D0912A018D1778F4E82FEF70F0E0E75E0E
S11317B0FE4F608390912901690F609329018F5F27
S11317C080932B011CC080912901681318C01092CA
S11317D02B01DD23A1F0C0E080913301EC2FEF70E9
S11317E0F0E0E75EFE4F6081D8DE809133018F5FC9
S11317F080933301CF5FC0932B01DC13EDCF85ECD5
S113180086BF08C085EC86BF05C085ED86BF02C0D3
S113181085EC86BFFF91EF91DF91CF91BF91AF919E
S11318209F918F917F916F915F914F913F912F91F4
S11318300F900FBE0F901F90189581B5886181BDE0
S113184011BC0895ECE5F1E085818E7F8583DBDCB6
S113185088E081BDFFCF5058BB27AA270ED04DC1C9
S11318603ED130F043D120F031F49F3F11F41EF407
S113187033C10EF4E095E7FB29C1E92F4FD180F382
S1131880BA17620773078407950718F071F49EF579
S113189067C10EF4E0950B2EBA2FA02D0B01B901F0
S11318A090010C01CA01A0011124FF27591B99F0D2
S11318B0593F50F4503E68F11A16F040A22F232FDE
S11318C0342F4427585FF3CF469537952795A7952E
S11318D0F0405395C9F77EF41F16BA0B620B730BD5
S11318E0840BBAF09150A1F0FF0FBB1F661F771F46
S11318F0881FC2F70EC0BA0F621F731F841F48F4FB
S1131900879577956795B795F7959E3F08F0B3CF80
S11319109395880F08F09927EE0F9795879508956A
S11319200CD0EBC0E3D040F0DAD030F021F45F3FCC
S113193019F0CCC0511115C1CFC0F0D098F3992340
S1131940C9F35523B1F3951B550BBB27AA2762177F
S11319507307840738F09F5F5F4F220F331F441FC4
S1131960AA1FA9F333D00E2E3AF0E0E830D09150FC
S11319705040E695001CCAF729D0FE2F27D0660FE9
S1131980771F881FBB1F261737074807AB07B0E828
S113199009F0BB0B802DBF01FF2793585F4F2AF03E
S11319A09E3F510568F092C0DCC05F3FECF3983E67
S11319B0DCF3869577956795B795F7959F5FC9F79B
S11319C0880F911D9695879597F90895E1E0660F24
S11319D0771F881FBB1F621773078407BA0720F09D
S11319E0621B730B840BBA0BEE1F88F7E095089506
S11319F004D06894B111B5C0089598D088F09F5769
S1131A0090F0B92F9927B751A0F0D1F0660F771F46
S1131A10881F991F1AF0BA95C9F712C0B13081F026
S1131A209FD0B1E008959CC0672F782F8827B85FB6
S1131A3039F0B93FCCF3869577956795B395D9F787
S1131A403EF490958095709561957F4F8F4F9F4F91
S1131A500895E89409C097FB3EF49095809570959D
S1131A6061957F4F8F4F9F4F9923A9F0F92F96E9E6
S1131A70BB279395F695879577956795B795F1115B
S1131A80F8CFFAF4BB0F11F460FF1BC06F5F7F4FF8
S1131A908F4F9F4F16C0882311F096E911C077230A
S1131AA021F09EE8872F762F05C0662371F096E813
S1131AB0862F70E060E02AF09A95660F771F881FE2
S1131AC0DAF7880F9695879597F9089597F99F67A0
S1131AD080E870E060E008959FEF80EC08950024B2
S1131AE00A941616170618060906089500240A947F
S1131AF012161306140605060895092E0394000C05
S1131B0011F4882352F0BB0F40F4BF2B11F460FF93
S1131B1004C06F5F7F4F8F4F9F4F089557FD9058BC
S1131B20440F551F59F05F3F71F04795880F97FB9D
S1131B30991F61F09F3F79F0879508951216130657
S1131B401406551FF2CF4695F1DF08C01616170686
S1131B501806991FF1CF86957105610508940895BB
S1131B60E894BB2766277727CB0197F908950BD014
S1131B70C4CFB5DF28F0BADF18F0952309F0A6CF5B
S1131B80ABCF1124EECFCADFA0F3959FD1F3950F0D
S1131B9050E0551F629FF001729FBB27F00DB11DED
S1131BA0639FAA27F00DB11DAA1F649F6627B00D7D
S1131BB0A11D661F829F2227B00DA11D621F739F66
S1131BC0B00DA11D621F839FA00D611D221F749F74
S1131BD03327A00D611D231F849F600D211D822FBB
S1131BE0762F6A2F11249F5750408AF0E1F0882302
S1131BF04AF0EE0FFF1FBB1F661F771F881F91500F
S1131C005040A9F79E3F510570F060CFAACF5F3FC7
S1131C10ECF3983EDCF3869577956795B795F79541
S1131C20E7959F5FC1F7FE2B880F911D96958795C9
S1131C3097F90895A1E21A2EAA1BBB1BFD010DC042
S1131C40AA1FBB1FEE1FFF1FA217B307E407F50768
S1131C5020F0A21BB30BE40BF50B661F771F881F44
S1131C60991F1A9469F760957095809590959B01DA
S1131C70AC01BD01CF0108950FD0B7FF0895821BB9
S1131C80930B089509D0A59F900DB49F900DA49F28
S1131C90800D911D11240895A29FB001B39FC0012E
S1131CA0A39F01D0B29F700D811D1124911D089531
S1131CB0DC0101C06D9341505040E0F70895DC0110
S1131CC0CB01FC01E199FECF06C0FFBBEEBBE09A5D
S1131CD031960DB20D9241505040B8F70895DC0191
S1131CE0CB0102C02D9105D041505040D8F7089542
S1131CF0262FE199FECF9FBB8EBB2DBB0FB6F89468
S1111D00E29AE19A0FBE01960895F894FFCF7F
S9030000FC
